{
  "contractName": "TestAlastriaCounter",
  "abi": [
    {
      "constant": true,
      "inputs": [],
      "name": "value",
      "outputs": [
        {
          "name": "",
          "type": "uint256"
        }
      ],
      "payable": false,
      "stateMutability": "view",
      "type": "function"
    },
    {
      "inputs": [
        {
          "name": "initVal",
          "type": "uint256"
        }
      ],
      "payable": false,
      "stateMutability": "nonpayable",
      "type": "constructor"
    },
    {
      "anonymous": false,
      "inputs": [
        {
          "indexed": false,
          "name": "message",
          "type": "string"
        },
        {
          "indexed": false,
          "name": "newVal",
          "type": "uint256"
        }
      ],
      "name": "Change",
      "type": "event"
    },
    {
      "constant": false,
      "inputs": [],
      "name": "add",
      "outputs": [],
      "payable": false,
      "stateMutability": "nonpayable",
      "type": "function"
    },
    {
      "constant": false,
      "inputs": [],
      "name": "subtract",
      "outputs": [],
      "payable": false,
      "stateMutability": "nonpayable",
      "type": "function"
    },
    {
      "constant": true,
      "inputs": [],
      "name": "get",
      "outputs": [
        {
          "name": "retVal",
          "type": "uint256"
        }
      ],
      "payable": false,
      "stateMutability": "view",
      "type": "function"
    }
  ],
  "bytecode": "0x6060604052341561000f57600080fd5b60405160208061029283398101604052808051600081905591507fbb1cb5be1009ed69d54a8f3da20ed253be50c4dbbcade4f0a12114dedd9be5d790508160405160208101919091526040808252600b818301527f696e697469616c697a656400000000000000000000000000000000000000000060608301526080909101905180910390a1506101ed806100a56000396000f3006060604052600436106100615763ffffffff7c01000000000000000000000000000000000000000000000000000000006000350416633fa4f24581146100665780634f2be91f1461008b5780636d4ce63c146100a05780636deebae3146100b3575b600080fd5b341561007157600080fd5b6100796100c6565b60405190815260200160405180910390f35b341561009657600080fd5b61009e6100cc565b005b34156100ab57600080fd5b610079610143565b34156100be57600080fd5b61009e610149565b60005481565b60008054600101908190557fbb1cb5be1009ed69d54a8f3da20ed253be50c4dbbcade4f0a12114dedd9be5d790604051602081019190915260408082526003818301527f616464000000000000000000000000000000000000000000000000000000000060608301526080909101905180910390a1565b60005490565b6000805460001901908190557fbb1cb5be1009ed69d54a8f3da20ed253be50c4dbbcade4f0a12114dedd9be5d790604051602081019190915260408082526009818301527f737562737472616374000000000000000000000000000000000000000000000060608301526080909101905180910390a15600a165627a7a72305820fc672c2eb9bb39ede217976b59ff5bc79369918147cb4c19949aa56311bfa6290029",
  "source": "pragma solidity ^0.4.9;\n\n\ncontract TestAlastriaCounter {\n\n    uint public value;\n\n    event Change(string message, uint newVal);\n\n    function TestAlastriaCounter(uint initVal) public {\n        value = initVal;\n        Change(\"initialized\", initVal);\n    }\n\n    function add() public {\n        value++;\n        Change(\"add\", value);\n    }\n\n    function subtract() public {\n        value--;\n        Change(\"substract\", value);\n    }\n\n    function get() public constant returns (uint retVal) {\n        return value;\n    }\n\n}\n",
  "sourcePath": "/home/marcos/dev/workspace/1.8/src/github.com/alastria/test-environment/contadortest/contracts/TestAlastriaCounter.sol",
  "compiler": {
    "name": "solc",
    "version": "0.4.19+commit.c4cbbb05.Emscripten.clang"
  },
  "schemaVersion": "2.0.0",
  "updatedAt": "2018-03-26T10:21:48.121Z"
}